:020000040000FA
:04000000FEEF17F008
:101429000130303000C58AC5881200C5803EEC0AFB
:10143900F01200C5843EEC0AF01200C5863EEC0AA3
:10144900F01200C5823EEC0AF01200016E01C0C91B
:10145900FF3EEC0AF0120022EC0AF017EC0AF0C980
:101469005012004B0E036E046AC00E056E2AEC0C76
:10147900F012009EA643EF0AF045EF0AF03EEF0A8C
:10148900F09E9612000F0EC16E1E0E936EF19E8194
:1014990050E009816E120094869488280EC66E3138
:1014A9000EC86EC79CC78E9E96A1961200016E9EAD
:1014B900A861EF0AF063EF0AF05CEF0AF09E980169
:1014C900C0ADFF1200046E000E016E03500DEC0B4F
:1014D900F0010E016E04500DEC0BF01200F52FF225
:1014E9002FE02FE32FE62FE92FEC2FF82FEF2FD343
:1014F9002FB32FC02FCA2FC08EC09AC088C096C0E4
:1015090090C082C094C292C19AC198C46AC36AC287
:10151900801200496A65EC0DF080EC0AF050EC0A83
:10152900F04DEC0BF047EC0AF0ABEC0AF012000AB4
:101539006E1AEC0AF0D00E2AEC0AF00A502AEC0ACC
:10154900F009502AEC0AF01EEC0AF01200948E946D
:101559009CAC9CAC8AAC98AC96AC84AB8EAB9CAB87
:1015690088B896810EAF6E9E989E9A1200870E03D8
:101579006E2F0E046E800E056E2AEC0CF0D4EC0C66
:10158900F036EC0AF00DEC0EF01BEC0FF012000235
:101599006E1AEC0AF0A00E2AEC0AF002502AEC0AA4
:1015A900F026EC0AF0A10E2AEC0AF030EC0AF0035E
:1015B9006E1EEC0AF003501200026E1AEC0AF0D00B
:1015C9000E2AEC0AF002502AEC0AF026EC0AF0D1B5
:1015D9000E2AEC0AF030EC0AF0036E1EEC0AF00356
:1015E900501200046E1AEC0AF0A00E2AEC0AF0045C
:1015F900502AEC0AF002502AEC0AF01EEC0AF021FB
:101609000E036E760EE82EFED7032EFCD700D012FD
:1016190000026E01B013EF0BF016EF0BF082821788
:10162900EF0BF0829202C083FF82848294958E82AE
:101639008082928284829483BE25EF0BF027EF0B80
:10164900F01EEF0BF08290959E1200076E07C00303
:10165900F0D8900336D8900336C250C30B0310C29A
:101669006EC282C2B23BEF0BF03DEF0BF036EF0BCF
:10167900F0C350C4CF03F0046A03C004F0036A0343
:1016890010056E0450066E05C001F006C002F01286
:1016990000000EE1EC0AF00B6E0B508009096E0098
:1016A9000E9CEC0AF0020EE1EC0AF00B6E0B5040B6
:1016B90009096E020E9CEC0AF0930E096E070E9C46
:1016C900EC0AF0000EE1EC0AF00B6E0B507F0B09EF
:1016D9006E000E9CEC0AF01200760E036E2F0E04BB
:1016E9006E800E056E2AEC0CF0540E036E2F0E045C
:1016F9006EC00E056E2AEC0CF0330E076EBB0E069B
:101709006EE00EE82EFED7062EFCD7072EFAD7007C
:101719000E436E000E426E42C002F0820EF6EC0AD3
:10172900F0010E496E1200AEEF0BF002C0F6FF0396
:10173900C0F7FFF86A050EF76403D00800F55005F5
:10174900D0F6CFE9FFF7CFEAFFEF505BEC0AF002E2
:101759004A032A02C0F6FF03C0F7FFF86A050EF72D
:101769006403D00800F55005D0F6CFE9FFF7CFEABA
:10177900FFEF500009D8A4C4EF0BF0C6EF0BF09AA5
:10178900EF0BF01200E60EF66E140EF76E000EF86F
:101799006E00EE60F010EE1AF00900F5CFEEFFE5ED
:1017A90050E150FAE1290EF66E140EF76E000EF8AC
:1017B9006E00EE54F010EE05F00900F5CFEEFFE5EE
:1017C90050E150FAE100EE7AF0110EEE6AE806FDFA
:1017D900E100EE3DF0170EEE6AE806FDE1000EF8B5
:1017E9006E000113EF0DF00A500B10D8B4FFEF0B88
:1017F900F001EF0CF025EF0CF0010E0C6E09EF0C67
:10180900F0D8900A360B360C2A0BAE0EEF0CF010FE
:10181900EF0CF005EF0CF00A50085C0B500958D892
:10182900A019EF0CF01BEF0CF01FEF0CF00A500899
:101839005E0B50095AD8900B320A320C2E10EF0C5D
:10184900F008C008F009C009F01200000E016E0589
:10185900500DEC0BF047EF0CF0010E016E03C0F6D2
:10186900FF04C0F7FFF86A050EF76403D00800F516
:101879005005D0F6CFE9FFF7CFEAFFEF500DEC0B9B
:10188900F0034A042A03C0F6FF04C0F7FFF86A050B
:101899000EF76403D00800F55005D0F6CFE9FFF73D
:1018A900CFEAFFEF500009D8A45DEF0CF05FEF0C11
:1018B900F031EF0CF01200016E0104D8A467EF0CAF
:1018C900F069EF0CF08CEF0CF003EC10F0486E4867
:1018D90028D8B472EF0CF074EF0CF080EF0CF054D0
:1018E90050D8B47AEF0CF07CEF0CF080EF0CF05488
:1018F9006A485099EF0CF04828D8A486EF0CF08874
:10190900EF0CF098EF0CF0010E546E98EF0CF0010B
:1019190050D8A492EF0CF094EF0CF098EF0CF00370
:10192900EC10F099EF0CF0FF0E1200000E066E009D
:101939000E056E03500410D8B4A5EF0CF0A7EF0CF8
:10194900F0CFEF0CF0010E076EAFEF0CF0D890035B
:10195900360436072A04AEB4EF0CF0B6EF0CF0AB40
:10196900EF0CF0D890053606360350015C0450029E
:1019790058D8A0C2EF0CF0C4EF0CF0C9EF0CF0037B
:1019890050015E0450025A0580D890043203320790
:101999002EB6EF0CF005C001F006C002F0120002ED
:1019A9000EE1EC0AF03D6E010EE1EC0AF03E6E002C
:1019B9000EE1EC0AF03F6E3DACE5EF0CF0E7EF0C01
:1019C900F0F2EF0CF03D380F0B010B300F4B6E3D71
:1019D900500F0B300F4C6EFBEF0CF03D380F0B0323
:1019E9000B300F4B6E3D500F0B300F4C6E3A0E4DB6
:1019F9006E3E380F0B0F0B300F4E6E3E500F0B30F3
:101A09000F4F6E3A0E506E3F380F0B0F0B300F51C0
:101A19006E3F500F0B300F526E536A12008EEC0A54
:101A2900F0010E60EC0CF04A6E040E4A18D8A4209E
:101A3900EF0DF022EF0DF03EEF0DF0010E496E3E75
:101A4900EF0DF0BBEC0AF015EF0DF040EC12F015BC
:101A5900EF0DF0A3EC11F015EF0DF0B8EC0DF0154A
:101A6900EF0DF071EC0BF015EF0DF0B0EC15F01572
:101A7900EF0DF049503B6E3C6A3C50000AD8B4481F
:101A8900EF0DF015EF0DF03B50000AD8B426EF0D1D
:101A9900F0010AD8B42AEF0DF0030AD8B42EEF0DDD
:101AA900F0010AD8B43AEF0DF0070AD8B432EF0DB5
:101AB900F0010AD8B436EF0DF015EF0DF0FEEF176F
:101AC900F0956A9450F80B946E8290C30E036ECD14
:101AD9000EE82EFED7032EFCD70000000E016E3350
:101AE9000E0DEC0BF01B0E036E9E0EE82EFED703B7
:101AF9002EFCD700D0000E016E330E0DEC0BF0A6B4
:101B09000EE82EFED700D0000E016E330E0DEC0B41
:101B1900F000D000D00000000E016E020E0DEC0B9B
:101B2900F0A60EE82EFED700D0000E016E380E0D7D
:101B3900EC0BF0A60EE82EFED700D0000E016E01C8
:101B49000E0DEC0BF0040E036E3E0EE82EFED703CD
:101B59002EFCD7000E016E0C0E0DEC0BF0A60EE854
:101B69002EFED700D01200126A820ECCEC0AF011B8
:101B79006E1150D8A4C3EF0DF0C5EF0DF0DAEF0DDB
:101B8900F01E0E026E2F0E036E98EC0BF0330E1042
:101B99006EBB0E0F6EE00EE82EFED70F2EFCD7108F
:101BA9002EFAD7010E496E0CEF0EF0070E026E2FBA
:101BB9000E036E98EC0BF001EF0EF0125087EC104B
:101BC900F0200E5BEC0AF01250300F5BEC0AF020AB
:101BD9000E5BEC0AF0200E5BEC0AF0200E5BEC0ABF
:101BE900F07A0E026E036A98EC0BF01B0E026E2F50
:101BF9000E036E98EC0BF0122A1150125CD8A00853
:101C0900EF0EF00AEF0EF0E2EF0DF0D6EF0DF01245
:101C1900004A04D8A413EF0EF015EF0EF029EF0EC9
:101C2900F045BE23EF0EF0455007E1070E445CD89E
:101C3900B021EF0EF023EF0EF025EF0EF0444A45E8
:101C49002A15EC11F054EF0EF0020E4A18D8A43000
:101C5900EF0EF032EF0EF045EF0EF045BE3EEF0EFF
:101C6900F0455009E1020E445CD8A03EEF0EF04069
:101C7900EF0EF025EF0EF04406D8A0450625EF0E2D
:101C8900F0030E4A18D8A44CEF0EF04EEF0EF054A4
:101C9900EF0EF0000E456E080E446E25EF0EF0446F
:101CA90050020DF350600FD96EDA6ADECF03F0DD12
:101CB900CF04F0C90E056E2AEC0CF01200066A0278
:101CC900BE6BEF0EF069EF0EF071EF0EF0016C02D2
:101CD9001ED8B0022A010E066E04BE78EF0EF07609
:101CE900EF0EF07CEF0EF0036C041ED8B0042A034B
:101CF900500410D8B483EF0EF085EF0EF0A9EF0E63
:101D0900F0010E056E8DEF0EF0D8900336043605FE
:101D19002A04AE92EF0EF094EF0EF089EF0EF00365
:101D290050015C04500258D8A09DEF0EF09FEF0EB1
:101D3900F0A3EF0EF00350015E0450025AD890044C
:101D4900320332052E94EF0EF00650D8B4AFEF0EE1
:101D5900F0B1EF0EF0B5EF0EF0016C021ED8B00233
:101D69002A01C001F002C002F01200066A04BEC2D4
:101D7900EF0EF0C0EF0EF0C8EF0EF0036C041ED8A2
:101D8900B0042A010E066E02BECFEF0EF0CDEF0EA3
:101D9900F0D5EF0EF0016C021ED8B0022A010E0632
:101DA9001A000E086E000E076E03500410D8B4E036
:101DB900EF0EF0E2EF0EF00AEF0FF0010E056EEAFA
:101DC900EF0EF0D89003360436052A04AEEFEF0E75
:101DD900F0F1EF0EF0E6EF0EF0D890073608360373
:101DE90050015C04500258D8A0FDEF0EF0FFEF0E31
:101DF900F004EF0FF00350015E0450025A0780D837
:101E09009004320332052EF1EF0EF00650D8B410CB
:101E1900EF0FF012EF0FF016EF0FF0076C081ED856
:101E2900B0082A07C001F008C002F01200140E1A07
:101E39006EAE0E1B6E230E1C6E410E1D6E040E2A15
:101E4900EC0BF001C008F002C009F00A6A0B6A0045
:101E59000E0EEC13F008C016F009C017F00AC018EE
:101E6900F00BC019F0E8EC13F016C02FF017C030D2
:101E7900F018C031F019C032F080EC0FF02FC039E2
:101E8900F030C03AF039C001F03AC002F0000E0457
:101E99006E640E036E9AEC0CF00150300F556E0013
:101EA9000E046E0A0E036E39C001F03AC002F09AB0
:101EB900EC0CF001C008F002C009F0000E0B6E0A2C
:101EC9000E0A6EF8EC0BF00850300F566E39C00848
:101ED900F03AC009F0000E0B6E0A0E0A6EF8EC0B10
:101EE900F00850300F576E550E036E046ACC0E057C
:101EF9006E2AEC0CF0120031343234386E3850D876
:101F0900A489EF0FF08BEF0FF095EF0FF0000E2F74
:101F19006E000E306E000E316E000E326E02EF1042
:101F2900F02FC033F030C034F031C035F032C03654
:101F3900F0200EA5EF0FF0D8903632353234323317
:101F490032E82EA0EF0FF03350376E318EFF0E2F8F
:101F590016FF0E3016FF0E3116000E3216960E3889
:101F69005E38BEBCEF0FF0BAEF0FF0D2EF0FF038CA
:101F790050800A970FD8B0C4EF0FF0C6EF0FF0C822
:101F8900EF0FF08BEF0FF0D8903232313230322F21
:101F990032383EC8EF0FF0EAEF0FF01F0E3864D861
:101FA900EF0FF0DAEF0FF0E2EF0FF08BEF0FF0D851
:101FB900902F3630363136323638063850D8A4E8C4
:101FC900EF0FF0EAEF0FF0DCEF0FF03750D8B4F075
:101FD900EF0FF0F2EF0FF0FAEF0FF0321E311E3073
:101FE9001E2F6C000E3022312232222FC02FF030EA
:101FF900C030F031C031F032C032F01200819A8124
:102009008C818E81B20BEF10F00DEF10F010EF10F4
:10201900F0010E86EF10F081B415EF10F017EF10F4
:10202900F01AEF10F0040E86EF10F081B61FEF10D2
:10203900F021EF10F024EF10F0070E86EF10F08179
:10204900B829EF10F02BEF10F02EEF10F00A0E86E2
:10205900EF10F0818A819C818E81B236EF10F038C1
:10206900EF10F03BEF10F0020E86EF10F081B44054
:10207900EF10F042EF10F045EF10F0050E86EF106B
:10208900F081B64AEF10F04CEF10F04FEF10F00866
:102099000E86EF10F081B854EF10F056EF10F0599A
:1020A900EF10F00B0E86EF10F0818A818C819E81F2
:1020B9009E81B262EF10F064EF10F067EF10F00349
:1020C9000E86EF10F081B46CEF10F06EEF10F07126
:1020D900EF10F0060E86EF10F081B676EF10F0786B
:1020E900EF10F07BEF10F0090E86EF10F081B88049
:1020F900EF10F082EF10F085EF10F00C0E86EF1064
:10210900F0FF0E1200086E820ECCEC0AF0046E0489
:1021190050066E076A000E0E6E000E0D6E08500D09
:102129000DF3CF0BF0F4CF0CF00850046E056A06DE
:1021390050045C07500558D8B0A5EF10F0A7EF1070
:10214900F014EF11F0000E0A6E000E096E0D507AB0
:102159000FD96EDA6A0B50CCEC0AF0DF6E0B4A0C21
:102169002A0D4A0E2A094A0A2A0ABEC5EF10F00AA0
:102179005009E1080E095CD8A0C5EF10F0C7EF10AF
:10218900F0ABEF10F00D507A0FD96EDA6A200EDF3E
:102199006E0D4A0E2A0D507A0FD96EDA6A0B50CCA1
:1021A900EC0AF0DF6E0B4A0C2A0D4A0E2A0D507A02
:1021B9000FD96EDA6A0B50CCEC0AF0DF6E0B4A0CC1
:1021C9002A0D4A0E2A0D507A0FD96EDA6A200EDFCF
:1021D9006E0D4A0E2A000E0A6E000E096E0D507A17
:1021E9000FD96EDA6A0B50CCEC0AF0DF6E0B4A0C91
:1021F9002A0D4A0E2A094A0A2A0ABE0DEF11F00AC7
:102209005009E1030E095CD8A00DEF11F00FEF1191
:10221900F0F3EF10F00D507A0FD96EDA6ADF6A1217
:1022290000000E086E000E076E07504B0FD96EDACC
:102239006ADF50026E4050F6EC0AF0404A412A0724
:102249004A082A08BE32EF11F0085009E1080E07C2
:102259005CD8A032EF11F034EF11F019EF11F0440E
:1022690050020DF350600FD96EDA6ADECFF6FFDD4A
:10227900CFF7FF0800F5CF02F04050F6EC0AF04026
:102289004A412A4450020DF350600FD96EDA6ADED2
:10229900CF05F0DDCF06F0010E0526000E0622055A
:1022A900C0F6FF06C0F7FF0800F5CF02F04050F670
:1022B900EC0AF0404A412A000E086E000E076E072C
:1022C90050550FD96EDA6ADF50026E4050F6EC0AAB
:1022D900F0404A412A074A082A08BE7DEF11F00852
:1022E9005009E1030E075CD8A07DEF11F07FEF11D3
:1022F900F064EF11F043BE8DEF11F0435007E10A8E
:102309000E425CD8B08BEF11F08DEF11F094EF1104
:10231900F0424A432A42C002F0820EF6EC0AF081EA
:102329000E40184110D8A49CEF11F09EEF11F0A2B5
:10233900EF11F0000E416E000E406E1200000E010A
:102349006E010E0DEC0BF0650E036E2F0E046E8000
:102359000E056E2AEC0CF0060E106E130E0F6EAE03
:102369000EE82EFED70F2EFCD7102EFAD7820ECCF0
:10237900EC0AF0146E1450D8A4C5EF11F0C7EF1190
:10238900F0E6EF11F0320E036E2F0E046E800E058B
:102399006E2AEC0CF0430E036E2F0E046EC00E0570
:1023A9006E2AEC0CF0330E106EBB0E0F6EE00EE8C9
:1023B9002EFED70F2EFCD7102EFAD7010E496E3FED
:1023C900EF12F0010E60EC0CF04A6E050E4A18D8B7
:1023D900A4F1EF11F0F3EF11F00EEF12F0FF0E146C
:1023E900240F6E106AFF0E10224750116E126A0FE9
:1023F90050115C1250800A136E1050800A1358D87D
:10240900B009EF12F00BEF12F02DEF12F0472A2D61
:10241900EF12F0060E4A18D8A415EF12F017EF12B2
:10242900F022EF12F04750D8B41DEF12F01FEF124F
:10243900F02DEF12F047062DEF12F0080E4A18D8CA
:10244900A429EF12F02BEF12F02DEF12F0E2EF11A9
:10245900F0475087EC10F0C00E036E4750300F67FD
:10246900EC0AF07A0E036E046AC20E056E2AEC0CB1
:10247900F0E6EF11F01200000E016E010E0DEC0BEB
:10248900F0106A20EE72F010EE08F0070EDBCFE3D1
:10249900FFE806FCE2010E60EC0CF04A6E050E4AFC
:1024A90018D8A45AEF12F05CEF12F06CEF12F00397
:1024B9000E106062EF12F064EF12F0C4EF12F00038
:1024C9000E016E010E0DEC0BF0102AC4EF12F0068E
:1024D9000E4A18D8A473EF12F075EF12F085EF12B7
:1024E900F01050D8B47BEF12F07DEF12F0C4EF1268
:1024F900F0000E016E010E0DEC0BF01006C4EF1288
:10250900F0070E4A18D8A48CEF12F08EEF12F0B330
:10251900EF12F0A0EF12F0020E496E0DEF13F00466
:102529000E496E0DEF13F0050E496E0DEF13F00312
:102539000E496E0DEF13F01050000AD8B490EF1247
:10254900F0010AD8B494EF12F0030AD8B498EF1244
:10255900F0010AD8B49CEF12F0C4EF12F0080E4A49
:1025690018D8A4BAEF12F0BCEF12F0C4EF12F04978
:102579006A000E016E010E0DEC0BF00DEF13F0DC8D
:102589000E036E2F0E046E800E056E2AEC0CF010F1
:1025990050020DF350080FD96EDA6ADECF03F0DD71
:1025A900CF04F0820E056E2AEC0CF01050066E076F
:1025B9006A010E0626000E072207BEEFEF12F0078A
:1025C9005007E1040E065CD8B0EDEF12F0EFEF1200
:1025D900F003EF13F01050020DF3CF06F0020E06D0
:1025E900260650080FD96EDA6ADECF03F0DDCF0474
:1025F900F0C20E056E2AEC0CF04FEF12F0980E03A4
:102609006E2F0E046EC20E056E2AEC0CF04FEF12FF
:10261900F01200106E1050D8B415EF13F017EF1325
:10262900F039EF13F00BBE1EEF13F01CEF13F03966
:10263900EF13F008C00CF009C00DF00AC00EF00B42
:10264900C00FF00C1E0D1E0E1E0F1E0C2A000E0DC3
:10265900220E220F220CC012F00DC013F00EC0146E
:10266900F00FC015F041EF13F008C012F009C013C4
:10267900F00AC014F00BC015F0085009100A100B2D
:1026890010D8A44AEF13F04CEF13F056EF13F000F3
:102699000E086E000E096E000E0A6E000E0B6EE734
:1026A900EF13F0960E116E60EF13F0112AD8901502
:1026B90032143213321232000E12140C6E000E1341
:1026C900140D6E000E14140E6EFE0E15140F6E0C02
:1026D900500D100E100F10D8A475EF13F077EF13EB
:1026E900F05AEF13F085EF13F0112A010E122600AC
:1026F9000E132214221522D89015321432133212D5
:1027090032000E12140C6E000E13140D6E000E140E
:10271900140E6EFF0E15140F6E0C500D100E100FC7
:1027290010D8A49AEF13F09CEF13F079EF13F0A4EB
:10273900EF13F01106D890123613361436153614E5
:10274900BEA9EF13F0ABEF13F0B3EF13F0020E11C4
:1027590060B1EF13F0B3EF13F09EEF13F011B0B8BF
:10276900EF13F0BAEF13F0BBEF13F0149ED89011EA
:102779003211C00CF00D6A0E6A0F6A0CC00FF00E10
:102789006A0D6A0C6A0C5012120D5013120E501475
:10279900120F5015121050D8B4D5EF13F0D7EF130C
:1027A900F0DFEF13F00BBEDEEF13F0DCEF13F0DF19
:1027B900EF13F0158E12C008F013C009F014C00A07
:1027C900F015C00BF012001950800B266E19501924
:1027D900242D6E18AEF3EF13F0F5EF13F0F6EF13A7
:1027E900F02D802D50D8B4FCEF13F0FEEF13F0124A
:1027F900EF14F02D28D8A404EF14F006EF14F00E0E
:10280900EF14F0000E166E000E176E000E186E0013
:102819000E196E188E196A1AEF14F0000E166E0052
:102829000E176E000E186E000E196E1D50800B26C5
:102839001A1D501D242E6E1CAE25EF14F027EF141F
:10284900F028EF14F02E802E50D8B42EEF14F0306B
:10285900EF14F044EF14F02E28D8A436EF14F03812
:10286900EF14F040EF14F0000E1A6E000E1B6E000C
:102879000E1C6E000E1D6E1C8E1D6A4CEF14F000AE
:102889000E1A6E000E1B6E000E1C6E000E1D6E1AC7
:10289900501B101C101D10D8A455EF14F057EF143D
:1028A900F06FEF14F0000E166E000E176E000E1882
:1028B9006E000E196E800E18127F0E19122650190D
:1028C9001216C016F017C017F018C018F019C01961
:1028D900F0AFEF15F02D50D8A475EF14F077EF1481
:1028E900F081EF14F0000E166E000E176E000E1830
:1028F9006E000E196EAFEF15F02E502DC01EF01F91
:102909006A1E5E000E1F5A7F0E1E24276E000E1FC0
:1029190020286E16C022F017C023F018C024F01921
:10292900C025F0000E166E000E176E000E186E0010
:102939000E196E000E296E000E2A6E000E2B6E0007
:102949000E2C6E2E6AE1EF14F02E50D8B4AFEF14AE
:10295900F0B1EF14F0C8EF14F0D8902236233624E2
:10296900362536D89016361736183619362CAEC095
:10297900EF14F0C2EF14F0C3EF14F01680D89029C9
:10298900362A362B362C361A50225C1B5023581CFB
:102999005024581D502558D8A0D5EF14F0D7EF145E
:1029A900F0E0EF14F02C8C1A50225E1B50235A1CB5
:1029B90050245A1D50255A2E2A190E2E64E7EF1459
:1029C900F0E9EF14F0A9EF14F02250231024102598
:1029D90010D8B4F2EF14F0F4EF14F00CEF15F0295D
:1029E900800CEF15F0D89016361736183619362C94
:1029F900AE01EF15F003EF15F004EF15F01680D8CE
:102A09009029362A362B362C362706D8A0280618C0
:102A1900AE11EF15F013EF15F0F7EF14F02E6A2C45
:102A2900AE19EF15F01BEF15F03FEF15F0FF0E296A
:102A3900141E6EFF0E2A141F6EFF0E2B14206E7FBC
:102A49000E2C14216E1E501F1020102110D8B430E6
:102A5900EF15F032EF15F036EF15F0010E2E6E3F3F
:102A6900EF15F016A03BEF15F03DEF15F03FEF1510
:102A7900F032EF15F02E50D8B445EF15F047EF15A9
:102A8900F06BEF15F0010E1626000E172218221909
:102A99002219A052EF15F054EF15F06BEF15F0164F
:102AA900C01EF017C01FF018C020F019C021F02176
:102AB90034213220321F321E321EC016F01FC017B9
:102AC900F020C018F021C019F0274A282A28BE761C
:102AD900EF15F0285008E12728D8A076EF15F078EF
:102AE900EF15F083EF15F0000E286E2768000E161B
:102AF9006E000E176E000E186E000E196E28BE902D
:102B0900EF15F0285006E12704D8B08EEF15F090A4
:102B1900EF15F09DEF15F0000E286E000E276E00E0
:102B29000E166E000E176E000E186E000E196E2628
:102B39006A27C02DF02DA0A4EF15F0A6EF15F0A976
:102B4900EF15F0188EAAEF15F0189ED8902D3019B0
:102B59006E63EF14F012000D6AD4EC0CF04B500ABE
:102B69000DF3504C24F00F0E6E4E500A0DF3504FDA
:102B790024F00F0F6E51500A0DF3505224F00F102C
:102B89006E000E016E010E0DEC0BF0010E60EC0CE7
:102B9900F04A6E050E4A18D8A4D5EF15F0D7EF15EF
:102BA900F019EF16F04650D8A4DDEF15F0DFEF1558
:102BB900F0ECEF15F00E2A180E0E18D8A4E7EF1551
:102BC900F0E9EF15F09EEF16F00E6A9EEF16F0464B
:102BD90004D8A4F2EF15F0F4EF15F001EF16F00F99
:102BE9002A3C0E0F18D8A4FCEF15F0FEEF15F09E45
:102BF900EF16F00F6A9EEF16F0020E4618D8A408D9
:102C0900EF16F00AEF16F017EF16F0102A3C0E1027
:102C190018D8A412EF16F014EF16F09EEF16F01064
:102C29006A9EEF16F09EEF16F0060E4A18D8A420F9
:102C3900EF16F022EF16F02EEF16F0462A020E4696
:102C49006429EF16F02BEF16F09EEF16F0466A9EF8
:102C5900EF16F0070E4A18D8A435EF16F037EF161D
:102C6900F091EF16F00EC001F0026A000E046E0A30
:102C79000E036E63EC0EF001C00BF002C00CF00EF7
:102C8900C001F0026A000E046E0A0E036EBAEC0E61
:102C9900F00138F00B0B10096E020E9CEC0AF00FD4
:102CA900C001F0026A000E046E0A0E036E63EC0E98
:102CB900F001C00BF002C00CF00FC001F0026A0075
:102CC9000E046E0A0E036EBAEC0EF00138F00B0B0F
:102CD90010096E010E9CEC0AF010C001F0026A00A6
:102CE9000E046E0A0E036E63EC0EF001C00BF002C7
:102CF900C00CF010C001F0026A000E046E0A0E0347
:102D09006EBAEC0EF00138F00B0B10096E000E9C38
:102D1900EC0AF0496A82EF17F0080E4A18D8A4980D
:102D2900EF16F09AEF16F09EEF16F0010E496E823B
:102D3900EF17F00EC001F0026A000E046E0A0E03CE
:102D49006EBAEC0EF00150300F4B6E0EC001F0025E
:102D59006A000E046E0A0E036E63EC0EF001503029
:102D69000F4C6E3A0E4D6E0FC001F0026A000E0450
:102D79006E0A0E036EBAEC0EF00150300F4E6E0F54
:102D8900C001F0026A000E046E0A0E036E63EC0EB7
:102D9900F00150300F4F6E3A0E506E10C001F00224
:102DA9006A000E046E0A0E036EBAEC0EF001503082
:102DB9000F516E10C001F0026A000E046E0A0E0374
:102DC9006E63EC0EF00150300F526E536AA60E037B
:102DD9006E2F0E046E800E056E2AEC0CF04650D84C
:102DE900A4F9EF16F0FBEF16F00DEF17F00D50D820
:102DF900B401EF17F003EF17F00DEF17F0A30E036F
:102E09006E2F0E046EC00E056E2AEC0CF017EF172C
:102E1900F0C00E036E4B5067EC0AF0C10E036E4C06
:102E29005067EC0AF0C20E036E3A0E67EC0AF046E0
:102E390004D8A422EF17F024EF17F036EF17F00D9E
:102E490050D8B42AEF17F02CEF17F036EF17F0A38C
:102E59000E036E2F0E046EC30E056E2AEC0CF040A5
:102E6900EF17F0C30E036E4E5067EC0AF0C40E0361
:102E79006E4F5067EC0AF0C50E036E3A0E67EC0A06
:102E8900F0020E4618D8A44CEF17F04EEF17F06079
:102E9900EF17F00D50D8B454EF17F056EF17F06054
:102EA900EF17F0A30E036E2F0E046EC60E056E2AE1
:102EB900EC0CF06AEF17F0C60E036E515067EC0A7E
:102EC900F0C70E036E525067EC0AF00D50D8B4707B
:102ED900EF17F073EF17F0010E74EF17F0000E0DF6
:102EE9006E080E0C6E9D0E0B6E060EE82EFED70BAD
:102EF9002EFCD70C2EFAD7CAEF15F0120000452E7A
:102F09004E6F20202054494D4520202045562053FE
:102F190050200A0D004E6F206C6F67732061766137
:102F2900696C61626C650A0D00202020204E6F20BB
:102F3900206C6F677320202020002020206176619B
:102F4900696C61626C652120202000202073756303
:102F59006365737366756C6C7921200023202020CA
:102F690054494D452020204556205350004C6F6749
:102F7900732061726520636C65617265640020204D
:102F890054494D45202020455620535020200020EB
:102F99002020202020202020202020200020205315
:102FA90045542054494D45202000446F776E6C6F7D
:102FB9006164204C6F6700436C656172204C6F67D8
:102FC900005365742054696D650056696577204C16
:102FD9006F67002D3E20004731004732004733001C
:102FE900473400473500204300474E004F4E004705
:072FF900520000C7EF0BF0CE
:020000040020DA
:08000000FFFFFFFFFFFFFFFF00
:020000040030CA
:0E000000FF071F1FFF8285FF0FC00FE00F409C
:00000001FF
